:020000020000FC
:0A00000019C0F3C0F2C0F1C0F0C057
:10000C00EEC0EDC0B6C0EBC0EAC0E9C0E8C0D3C0DA
:10001C00E6C0E5C0E4C0E3C0E2C04FC0A9C0DFC089
:10002C00DEC0DDC0DCC0DBC000EE0093000400E2EB
:10003C000093040405E00093200403E000932404DF
:10004C00A0E8BFE301E00D9303950837E0F308ED5A
:10005C0017E1009334001093610000E50093260A29
:10006C0003EC0093270A0AE000932C0A00E00093AB
:10007C002D0A01E00093000A03E40093010A01E059
:10008C0000930A0A01E00093400A04E104E00093A3
:10009C00410A01E00093440A01E00093450A0DE097
:1000AC000093830104E00093920108E200931C0882
:1000BC0003EE009319087894FFCFF89410911B0865
:1000CC0016FF36C010FF2EC010911D0810FD09C080
:1000DC00226013E010931A0810E410931B08789414
:1000EC0018952160C1E0C093803FCA2DC093813F19
:1000FC00C82DC093823FC92DC093833FCA2DC825FC
:10010C00C925C093843F31E03093803F13E01093B6
:10011C001A0810E410931B0844E000E40093050453
:10012C007894189520E010E410931B087894189597
:10013C0020FD09C021FD15C010911D0800E400939D
:10014C00050478941895C091803FDD27C058D04C99
:10015C00099100931D08C058DF43C093803F7894E9
:10016C00189510911D087894189500E400930504D7
:10017C001895F89451E050930B0A4A9519F450E4F1
:10018C00509306046A9531F450E85093060450E0FD
:10019C00852E952E5091280453FF08C072E050E82C
:1001AC005093060450E0852E952E03C0703009F054
:1001BC007A9578941895F894703031F050914C0AE7
:1001CC0050914D0A7894189550E85093050462E0CC
:1001DC0080904C0A90904D0AA39478941895189599
:00000001FF
