:020000020000FC
:100000008FC0E7C0E6C0B6C0E4C0E3C0CDC0E1C069
:10001000E0C0DFC0DEC0DDC0DCC0DBC0DAC003C0D2
:1000200012C0D7C0D6C00F930FB70F93BD9800E092
:1000300004BBB799FECF08EF0DB900EE0EB90F91D2
:100040000FBF0F911895DF93CF931F930F930FB7A7
:100050000F931FB1A79B4FC0A69B2DC0A49B26C08A
:10006000A59B11C0103069F5A498C0916000DD27F0
:10007000C05ADF4F09910FB9C056D040C0936000FD
:10008000BD9A00EE45C0A59AC1E0C0936000C22FA2
:10009000C0936100C42FC0936200C52FC09363005A
:1000A000C22FC427C527C0936400DECFA49ABD9891
:1000B00000E00FB92CC0A49B0BC0A498BD9800EE23
:1000C00027C0BD9800E004BB08EA0DB900EF20C0CE
:1000D000A59905C010936000A59AA49A15C0C09177
:1000E0006000DD27C05ADF4F1993C056D040C0933F
:1000F0006000A49A09C010FB1E7F163211F700E9B8
:1001000006F904BB34E0939A00E00FB9BD9A0EEEF5
:100110000EB90F910FBF0F911F91CF91DF911895DD
:100120000FED0DBF08E101BB00E102BB04E807BB16
:1001300000EA08BB479A00E205BFA0E6B0E001E094
:100140000D9303950837E0F303E800BF05E003BF14
:1001500000E006BF00E00FBD02E40EBD08EA0DB9E5
:1001600000EF0EB900E004BB08E009BF02E009BFE0
:100170007894FFCF1F930F930FB70F930EB506FD23
:100180000AC044B555B5461B570B239502E40EBD76
:1001900002E009BF04C064B575B502E00EBD0F9161
:1001A0000FBF0F911F9118951F930F930FB70F93C8
:1001B00009B703FF02C040E050E00AE009BF02E4D3
:1001C0000EBD3A9509F493980F910FBF0F911F91AF
:0401D00018951895D1
:00000001FF
