:020000020000FC
:0A00000019C0CEC0CDC0CCC0CBC0EB
:10000C00C9C0C8C0AFC0C6C0C5C0C4C0C3C0B8C0DA
:10001C00C1C0C0C0BFC0BEC0BDC04FC0A2C0BAC06E
:10002C00B9C0B8C0B7C0B6C000EE0093000400E27F
:10003C000093040405E00093200403E000932404DF
:10004C00A0E8BFE301E00D9303950837E0F308ED5A
:10005C0017E1009334001093610000E50093260A29
:10006C0003EC0093270A0AE000932C0A00E00093AB
:10007C002D0A01E00093000A03E40093010A01E059
:10008C0000930A0A01E00093400A04E104E00093A3
:10009C00410A01E00093440A01E00093450A0DE097
:1000AC000093830104E00093920106E200931C0884
:1000BC0003EE009319087894FFCF10911B0816FFDC
:1000CC0033C010FF2CC010911D0810FD08C0226019
:1000DC0013E010931A0810E410931B081895216074
:1000EC00C1E0C093803FCA2DC093813FC82DC093FF
:1000FC00823FC92DC093833FCA2DC825C925C09303
:10010C00843F31E03093803F13E010931A0810E4E1
:10011C0010931B0844E000E400930504189520E0BC
:10012C0010E410931B08189520FD08C021FD13C086
:10013C0010911D0800E4009305041895C091803FB0
:10014C00DD27C058D04C099100931D08C058DF43DF
:10015C00C093803F189510911D08189500E40093EA
:10016C00050418954A9519F450E4509306046A95C1
:10017C0019F450E85093060451E050930B0A18956B
:10018C0050E85093050463E080904D0A90904C0A1F
:06019C00A39418951895CC
:00000001FF
